{
  "contractName": "TokenFarm",
  "abi": [
    {
      "inputs": [
        {
          "internalType": "contract DaiToken",
          "name": "_daiToken",
          "type": "address"
        },
        {
          "internalType": "contract DappToken",
          "name": "_dappToken",
          "type": "address"
        }
      ],
      "stateMutability": "nonpayable",
      "type": "constructor"
    },
    {
      "inputs": [],
      "name": "daiToken",
      "outputs": [
        {
          "internalType": "contract DaiToken",
          "name": "",
          "type": "address"
        }
      ],
      "stateMutability": "view",
      "type": "function"
    },
    {
      "inputs": [],
      "name": "dappToken",
      "outputs": [
        {
          "internalType": "contract DappToken",
          "name": "",
          "type": "address"
        }
      ],
      "stateMutability": "view",
      "type": "function"
    },
    {
      "inputs": [
        {
          "internalType": "address",
          "name": "",
          "type": "address"
        }
      ],
      "name": "hasStaked",
      "outputs": [
        {
          "internalType": "bool",
          "name": "",
          "type": "bool"
        }
      ],
      "stateMutability": "view",
      "type": "function"
    },
    {
      "inputs": [
        {
          "internalType": "address",
          "name": "",
          "type": "address"
        }
      ],
      "name": "isStaking",
      "outputs": [
        {
          "internalType": "bool",
          "name": "",
          "type": "bool"
        }
      ],
      "stateMutability": "view",
      "type": "function"
    },
    {
      "inputs": [],
      "name": "name",
      "outputs": [
        {
          "internalType": "string",
          "name": "",
          "type": "string"
        }
      ],
      "stateMutability": "view",
      "type": "function"
    },
    {
      "inputs": [],
      "name": "owner",
      "outputs": [
        {
          "internalType": "address",
          "name": "",
          "type": "address"
        }
      ],
      "stateMutability": "view",
      "type": "function"
    },
    {
      "inputs": [
        {
          "internalType": "uint256",
          "name": "",
          "type": "uint256"
        }
      ],
      "name": "stakers",
      "outputs": [
        {
          "internalType": "address",
          "name": "",
          "type": "address"
        }
      ],
      "stateMutability": "view",
      "type": "function"
    },
    {
      "inputs": [
        {
          "internalType": "address",
          "name": "",
          "type": "address"
        }
      ],
      "name": "stakersBalances",
      "outputs": [
        {
          "internalType": "uint256",
          "name": "",
          "type": "uint256"
        }
      ],
      "stateMutability": "view",
      "type": "function"
    },
    {
      "inputs": [
        {
          "internalType": "uint256",
          "name": "_amount",
          "type": "uint256"
        }
      ],
      "name": "stakeTokens",
      "outputs": [],
      "stateMutability": "nonpayable",
      "type": "function"
    },
    {
      "inputs": [],
      "name": "withdrawTokens",
      "outputs": [],
      "stateMutability": "nonpayable",
      "type": "function"
    },
    {
      "inputs": [],
      "name": "issueTokens",
      "outputs": [],
      "stateMutability": "nonpayable",
      "type": "function"
    }
  ],
  "bytecode": "0x60806040526040518060400160405280600f81526020017f4441505020546f6b656e204661726d0000000000000000000000000000000000815250600090805190602001906200005192919062000150565b503480156200005f57600080fd5b50604051620014ca380380620014ca8339818101604052810190620000859190620002c3565b81600260006101000a81548173ffffffffffffffffffffffffffffffffffffffff021916908373ffffffffffffffffffffffffffffffffffffffff16021790555080600360006101000a81548173ffffffffffffffffffffffffffffffffffffffff021916908373ffffffffffffffffffffffffffffffffffffffff16021790555033600160006101000a81548173ffffffffffffffffffffffffffffffffffffffff021916908373ffffffffffffffffffffffffffffffffffffffff16021790555050506200036f565b8280546200015e9062000339565b90600052602060002090601f016020900481019282620001825760008555620001ce565b82601f106200019d57805160ff1916838001178555620001ce565b82800160010185558215620001ce579182015b82811115620001cd578251825591602001919060010190620001b0565b5b509050620001dd9190620001e1565b5090565b5b80821115620001fc576000816000905550600101620001e2565b5090565b600080fd5b600073ffffffffffffffffffffffffffffffffffffffff82169050919050565b6000620002328262000205565b9050919050565b6000620002468262000225565b9050919050565b620002588162000239565b81146200026457600080fd5b50565b60008151905062000278816200024d565b92915050565b60006200028b8262000225565b9050919050565b6200029d816200027e565b8114620002a957600080fd5b50565b600081519050620002bd8162000292565b92915050565b60008060408385031215620002dd57620002dc62000200565b5b6000620002ed8582860162000267565b92505060206200030085828601620002ac565b9150509250929050565b7f4e487b7100000000000000000000000000000000000000000000000000000000600052602260045260246000fd5b600060028204905060018216806200035257607f821691505b602082108114156200036957620003686200030a565b5b50919050565b61114b806200037f6000396000f3fe608060405234801561001057600080fd5b50600436106100a95760003560e01c80638d8f2adb116100715780638d8f2adb146101405780638da5cb5b1461014a578063b3205f2e14610168578063be22f54614610198578063c93c8f34146101b6578063fd5e6dd1146101e6576100a9565b806306fdde03146100ae5780635eb186f8146100cc57806360ab5852146100ea5780636f49712b146100f45780637547c7a314610124575b600080fd5b6100b6610216565b6040516100c39190610b3f565b60405180910390f35b6100d46102a4565b6040516100e19190610be0565b60405180910390f35b6100f26102ca565b005b61010e60048036038101906101099190610c3e565b6104b4565b60405161011b9190610c86565b60405180910390f35b61013e60048036038101906101399190610cd7565b6104d4565b005b610148610778565b005b6101526109e3565b60405161015f9190610d13565b60405180910390f35b610182600480360381019061017d9190610c3e565b610a09565b60405161018f9190610d3d565b60405180910390f35b6101a0610a21565b6040516101ad9190610d79565b60405180910390f35b6101d060048036038101906101cb9190610c3e565b610a47565b6040516101dd9190610c86565b60405180910390f35b61020060048036038101906101fb9190610cd7565b610a67565b60405161020d9190610d13565b60405180910390f35b6000805461022390610dc3565b80601f016020809104026020016040519081016040528092919081815260200182805461024f90610dc3565b801561029c5780601f106102715761010080835404028352916020019161029c565b820191906000526020600020905b81548152906001019060200180831161027f57829003601f168201915b505050505081565b600360009054906101000a900473ffffffffffffffffffffffffffffffffffffffff1681565b600160009054906101000a900473ffffffffffffffffffffffffffffffffffffffff1673ffffffffffffffffffffffffffffffffffffffff163373ffffffffffffffffffffffffffffffffffffffff161461035a576040517f08c379a000000000000000000000000000000000000000000000000000000000815260040161035190610e67565b60405180910390fd5b60005b6004805490508110156104b1576000600482815481106103805761037f610e87565b5b9060005260206000200160009054906101000a900473ffffffffffffffffffffffffffffffffffffffff1690506000600560008373ffffffffffffffffffffffffffffffffffffffff1673ffffffffffffffffffffffffffffffffffffffff168152602001908152602001600020549050600081111561049c57600360009054906101000a900473ffffffffffffffffffffffffffffffffffffffff1673ffffffffffffffffffffffffffffffffffffffff1663a9059cbb83836040518363ffffffff1660e01b8152600401610457929190610eb6565b6020604051808303816000875af1158015610476573d6000803e3d6000fd5b505050506040513d601f19601f8201168201806040525081019061049a9190610f0b565b505b505080806104a990610f67565b91505061035d565b50565b60076020528060005260406000206000915054906101000a900460ff1681565b60008111610517576040517f08c379a000000000000000000000000000000000000000000000000000000000815260040161050e90610ffc565b60405180910390fd5b600260009054906101000a900473ffffffffffffffffffffffffffffffffffffffff1673ffffffffffffffffffffffffffffffffffffffff166323b872dd3330846040518463ffffffff1660e01b81526004016105769392919061101c565b6020604051808303816000875af1158015610595573d6000803e3d6000fd5b505050506040513d601f19601f820116820180604052508101906105b99190610f0b565b5080600560003373ffffffffffffffffffffffffffffffffffffffff1673ffffffffffffffffffffffffffffffffffffffff16815260200190815260200160002060008282546106099190611053565b92505081905550600660003373ffffffffffffffffffffffffffffffffffffffff1673ffffffffffffffffffffffffffffffffffffffff16815260200190815260200160002060009054906101000a900460ff16610775576004339080600181540180825580915050600190039060005260206000200160009091909190916101000a81548173ffffffffffffffffffffffffffffffffffffffff021916908373ffffffffffffffffffffffffffffffffffffffff1602179055506001600660003373ffffffffffffffffffffffffffffffffffffffff1673ffffffffffffffffffffffffffffffffffffffff16815260200190815260200160002060006101000a81548160ff0219169083151502179055506001600760003373ffffffffffffffffffffffffffffffffffffffff1673ffffffffffffffffffffffffffffffffffffffff16815260200190815260200160002060006101000a81548160ff0219169083151502179055505b50565b6000600560003373ffffffffffffffffffffffffffffffffffffffff1673ffffffffffffffffffffffffffffffffffffffff168152602001908152602001600020549050600081116107ff576040517f08c379a00000000000000000000000000000000000000000000000000000000081526004016107f6906110f5565b60405180910390fd5b600260009054906101000a900473ffffffffffffffffffffffffffffffffffffffff1673ffffffffffffffffffffffffffffffffffffffff1663a9059cbb33836040518363ffffffff1660e01b815260040161085c929190610eb6565b6020604051808303816000875af115801561087b573d6000803e3d6000fd5b505050506040513d601f19601f8201168201806040525081019061089f9190610f0b565b50600360009054906101000a900473ffffffffffffffffffffffffffffffffffffffff1673ffffffffffffffffffffffffffffffffffffffff166323b872dd3330846040518463ffffffff1660e01b81526004016108ff9392919061101c565b6020604051808303816000875af115801561091e573d6000803e3d6000fd5b505050506040513d601f19601f820116820180604052508101906109429190610f0b565b506000600560003373ffffffffffffffffffffffffffffffffffffffff1673ffffffffffffffffffffffffffffffffffffffff168152602001908152602001600020819055506000600760003373ffffffffffffffffffffffffffffffffffffffff1673ffffffffffffffffffffffffffffffffffffffff16815260200190815260200160002060006101000a81548160ff02191690831515021790555050565b600160009054906101000a900473ffffffffffffffffffffffffffffffffffffffff1681565b60056020528060005260406000206000915090505481565b600260009054906101000a900473ffffffffffffffffffffffffffffffffffffffff1681565b60066020528060005260406000206000915054906101000a900460ff1681565b60048181548110610a7757600080fd5b906000526020600020016000915054906101000a900473ffffffffffffffffffffffffffffffffffffffff1681565b600081519050919050565b600082825260208201905092915050565b60005b83811015610ae0578082015181840152602081019050610ac5565b83811115610aef576000848401525b50505050565b6000601f19601f8301169050919050565b6000610b1182610aa6565b610b1b8185610ab1565b9350610b2b818560208601610ac2565b610b3481610af5565b840191505092915050565b60006020820190508181036000830152610b598184610b06565b905092915050565b600073ffffffffffffffffffffffffffffffffffffffff82169050919050565b6000819050919050565b6000610ba6610ba1610b9c84610b61565b610b81565b610b61565b9050919050565b6000610bb882610b8b565b9050919050565b6000610bca82610bad565b9050919050565b610bda81610bbf565b82525050565b6000602082019050610bf56000830184610bd1565b92915050565b600080fd5b6000610c0b82610b61565b9050919050565b610c1b81610c00565b8114610c2657600080fd5b50565b600081359050610c3881610c12565b92915050565b600060208284031215610c5457610c53610bfb565b5b6000610c6284828501610c29565b91505092915050565b60008115159050919050565b610c8081610c6b565b82525050565b6000602082019050610c9b6000830184610c77565b92915050565b6000819050919050565b610cb481610ca1565b8114610cbf57600080fd5b50565b600081359050610cd181610cab565b92915050565b600060208284031215610ced57610cec610bfb565b5b6000610cfb84828501610cc2565b91505092915050565b610d0d81610c00565b82525050565b6000602082019050610d286000830184610d04565b92915050565b610d3781610ca1565b82525050565b6000602082019050610d526000830184610d2e565b92915050565b6000610d6382610bad565b9050919050565b610d7381610d58565b82525050565b6000602082019050610d8e6000830184610d6a565b92915050565b7f4e487b7100000000000000000000000000000000000000000000000000000000600052602260045260246000fd5b60006002820490506001821680610ddb57607f821691505b60208210811415610def57610dee610d94565b5b50919050565b7f4f6e6c7920746865206f776e6572206f66207468697320636f6e74726163742060008201527f63616e20697373756520746f6b656e7300000000000000000000000000000000602082015250565b6000610e51603083610ab1565b9150610e5c82610df5565b604082019050919050565b60006020820190508181036000830152610e8081610e44565b9050919050565b7f4e487b7100000000000000000000000000000000000000000000000000000000600052603260045260246000fd5b6000604082019050610ecb6000830185610d04565b610ed86020830184610d2e565b9392505050565b610ee881610c6b565b8114610ef357600080fd5b50565b600081519050610f0581610edf565b92915050565b600060208284031215610f2157610f20610bfb565b5b6000610f2f84828501610ef6565b91505092915050565b7f4e487b7100000000000000000000000000000000000000000000000000000000600052601160045260246000fd5b6000610f7282610ca1565b91507fffffffffffffffffffffffffffffffffffffffffffffffffffffffffffffffff821415610fa557610fa4610f38565b5b600182019050919050565b7f416d6f756e74206d7573742062652067726561746572207468616e2030000000600082015250565b6000610fe6601d83610ab1565b9150610ff182610fb0565b602082019050919050565b6000602082019050818103600083015261101581610fd9565b9050919050565b60006060820190506110316000830186610d04565b61103e6020830185610d04565b61104b6040830184610d2e565b949350505050565b600061105e82610ca1565b915061106983610ca1565b9250827fffffffffffffffffffffffffffffffffffffffffffffffffffffffffffffffff0382111561109e5761109d610f38565b5b828201905092915050565b7f42616c616e6365206d7573742062652067726561746572207468616e20300000600082015250565b60006110df601e83610ab1565b91506110ea826110a9565b602082019050919050565b6000602082019050818103600083015261110e816110d2565b905091905056fea2646970667358221220de65ec97a26b0fde902ed80b7f500641dd34dca9fee1e78cb4d2587ab2c112f664736f6c634300080a0033",
  "immutableReferences": {},
  "source": "//SPDX-License-Identifier: UNLICENSED\r\npragma solidity 0.8.10;\r\n\r\nimport \"./DaiToken.sol\";\r\nimport \"./DappToken.sol\";\r\n\r\ncontract TokenFarm {\r\n  string public name = \"DAPP Token Farm\";\r\n  address public owner;\r\n  DaiToken public daiToken;\r\n  DappToken public dappToken;\r\n\r\n  address[] public stakers;\r\n  mapping(address => uint256) public stakersBalances;\r\n  mapping(address => bool) public hasStaked;\r\n  mapping(address => bool) public isStaking;\r\n\r\n  constructor(DaiToken _daiToken, DappToken _dappToken) {\r\n    daiToken = _daiToken;\r\n    dappToken = _dappToken;\r\n    owner = msg.sender;\r\n  }\r\n\r\n  //deposit\r\n  function stakeTokens(uint256 _amount) public {\r\n    require(_amount > 0, \"Amount must be greater than 0\");\r\n\r\n    //transfer dai tokens to token farm\r\n    daiToken.transferFrom(msg.sender, address(this), _amount);\r\n\r\n    // update stakers balance\r\n    stakersBalances[msg.sender] += _amount;\r\n\r\n    //add new stakers\r\n    if (!hasStaked[msg.sender]) {\r\n      stakers.push(msg.sender);\r\n\r\n      hasStaked[msg.sender] = true;\r\n      isStaking[msg.sender] = true;\r\n    }\r\n  }\r\n\r\n  function withdrawTokens() public {\r\n    uint256 balance = stakersBalances[msg.sender];\r\n    require(balance > 0, \"Balance must be greater than 0\");\r\n\r\n    daiToken.transfer(msg.sender, balance);\r\n    dappToken.transferFrom(msg.sender, address(this), balance);\r\n\r\n    stakersBalances[msg.sender] = 0;\r\n    isStaking[msg.sender] = false;\r\n  }\r\n\r\n  //issue tokens\r\n  function issueTokens() public {\r\n    require(\r\n      msg.sender == owner,\r\n      \"Only the owner of this contract can issue tokens\"\r\n    );\r\n\r\n    for (uint256 i = 0; i < stakers.length; i++) {\r\n      address receiver = stakers[i];\r\n      uint256 balance = stakersBalances[receiver];\r\n\r\n      if (balance > 0) {\r\n        dappToken.transfer(receiver, balance);\r\n      }\r\n    }\r\n  }\r\n}\r\n",
  "sourcePath": "C:\\Users\\Asus\\Documents\\GitHub\\DeFi-App\\src\\contracts\\TokenFarm.sol",
  "compiler": {
    "name": "solc",
    "version": "0.8.10+commit.fc410830.Emscripten.clang"
  },
  "schemaVersion": "3.4.3",
  "updatedAt": "2021-11-29T05:53:29.686Z",
  "devdoc": {
    "kind": "dev",
    "methods": {},
    "version": 1
  },
  "userdoc": {
    "kind": "user",
    "methods": {},
    "version": 1
  }
}