{
  "contractName": "TokenFarm",
  "abi": [
    {
      "inputs": [
        {
          "internalType": "contract DaiToken",
          "name": "_daiToken",
          "type": "address"
        },
        {
          "internalType": "contract DappToken",
          "name": "_dappToken",
          "type": "address"
        }
      ],
      "stateMutability": "nonpayable",
      "type": "constructor"
    },
    {
      "inputs": [],
      "name": "daiToken",
      "outputs": [
        {
          "internalType": "contract DaiToken",
          "name": "",
          "type": "address"
        }
      ],
      "stateMutability": "view",
      "type": "function"
    },
    {
      "inputs": [],
      "name": "dappToken",
      "outputs": [
        {
          "internalType": "contract DappToken",
          "name": "",
          "type": "address"
        }
      ],
      "stateMutability": "view",
      "type": "function"
    },
    {
      "inputs": [
        {
          "internalType": "address",
          "name": "",
          "type": "address"
        }
      ],
      "name": "hasStaken",
      "outputs": [
        {
          "internalType": "bool",
          "name": "",
          "type": "bool"
        }
      ],
      "stateMutability": "view",
      "type": "function"
    },
    {
      "inputs": [
        {
          "internalType": "address",
          "name": "",
          "type": "address"
        }
      ],
      "name": "isStaking",
      "outputs": [
        {
          "internalType": "bool",
          "name": "",
          "type": "bool"
        }
      ],
      "stateMutability": "view",
      "type": "function"
    },
    {
      "inputs": [],
      "name": "name",
      "outputs": [
        {
          "internalType": "string",
          "name": "",
          "type": "string"
        }
      ],
      "stateMutability": "view",
      "type": "function"
    },
    {
      "inputs": [],
      "name": "owner",
      "outputs": [
        {
          "internalType": "address",
          "name": "",
          "type": "address"
        }
      ],
      "stateMutability": "view",
      "type": "function"
    },
    {
      "inputs": [
        {
          "internalType": "uint256",
          "name": "",
          "type": "uint256"
        }
      ],
      "name": "stakers",
      "outputs": [
        {
          "internalType": "address",
          "name": "",
          "type": "address"
        }
      ],
      "stateMutability": "view",
      "type": "function"
    },
    {
      "inputs": [
        {
          "internalType": "address",
          "name": "",
          "type": "address"
        }
      ],
      "name": "stakersBalances",
      "outputs": [
        {
          "internalType": "uint256",
          "name": "",
          "type": "uint256"
        }
      ],
      "stateMutability": "view",
      "type": "function"
    },
    {
      "inputs": [
        {
          "internalType": "uint256",
          "name": "_amount",
          "type": "uint256"
        }
      ],
      "name": "stakeTokens",
      "outputs": [],
      "stateMutability": "nonpayable",
      "type": "function"
    },
    {
      "inputs": [],
      "name": "issueTokens",
      "outputs": [],
      "stateMutability": "nonpayable",
      "type": "function"
    }
  ],
  "bytecode": "0x60806040526040518060400160405280600f81526020017f4441505020546f6b656e204661726d0000000000000000000000000000000000815250600090805190602001906200005192919062000150565b503480156200005f57600080fd5b506040516200112f3803806200112f8339818101604052810190620000859190620002c3565b81600260006101000a81548173ffffffffffffffffffffffffffffffffffffffff021916908373ffffffffffffffffffffffffffffffffffffffff16021790555080600360006101000a81548173ffffffffffffffffffffffffffffffffffffffff021916908373ffffffffffffffffffffffffffffffffffffffff16021790555033600160006101000a81548173ffffffffffffffffffffffffffffffffffffffff021916908373ffffffffffffffffffffffffffffffffffffffff16021790555050506200036f565b8280546200015e9062000339565b90600052602060002090601f016020900481019282620001825760008555620001ce565b82601f106200019d57805160ff1916838001178555620001ce565b82800160010185558215620001ce579182015b82811115620001cd578251825591602001919060010190620001b0565b5b509050620001dd9190620001e1565b5090565b5b80821115620001fc576000816000905550600101620001e2565b5090565b600080fd5b600073ffffffffffffffffffffffffffffffffffffffff82169050919050565b6000620002328262000205565b9050919050565b6000620002468262000225565b9050919050565b620002588162000239565b81146200026457600080fd5b50565b60008151905062000278816200024d565b92915050565b60006200028b8262000225565b9050919050565b6200029d816200027e565b8114620002a957600080fd5b50565b600081519050620002bd8162000292565b92915050565b60008060408385031215620002dd57620002dc62000200565b5b6000620002ed8582860162000267565b92505060206200030085828601620002ac565b9150509250929050565b7f4e487b7100000000000000000000000000000000000000000000000000000000600052602260045260246000fd5b600060028204905060018216806200035257607f821691505b602082108114156200036957620003686200030a565b5b50919050565b610db0806200037f6000396000f3fe608060405234801561001057600080fd5b506004361061009e5760003560e01c80638da5cb5b116100665780638da5cb5b146101355780638df36cfc14610153578063b3205f2e14610183578063be22f546146101b3578063fd5e6dd1146101d15761009e565b806306fdde03146100a35780635eb186f8146100c157806360ab5852146100df5780636f49712b146100e95780637547c7a314610119575b600080fd5b6100ab610201565b6040516100b8919061087c565b60405180910390f35b6100c961028f565b6040516100d6919061091d565b60405180910390f35b6100e76102b5565b005b61010360048036038101906100fe919061097b565b61049f565b60405161011091906109c3565b60405180910390f35b610133600480360381019061012e9190610a14565b6104bf565b005b61013d610720565b60405161014a9190610a50565b60405180910390f35b61016d6004803603810190610168919061097b565b610746565b60405161017a91906109c3565b60405180910390f35b61019d6004803603810190610198919061097b565b610766565b6040516101aa9190610a7a565b60405180910390f35b6101bb61077e565b6040516101c89190610ab6565b60405180910390f35b6101eb60048036038101906101e69190610a14565b6107a4565b6040516101f89190610a50565b60405180910390f35b6000805461020e90610b00565b80601f016020809104026020016040519081016040528092919081815260200182805461023a90610b00565b80156102875780601f1061025c57610100808354040283529160200191610287565b820191906000526020600020905b81548152906001019060200180831161026a57829003601f168201915b505050505081565b600360009054906101000a900473ffffffffffffffffffffffffffffffffffffffff1681565b600160009054906101000a900473ffffffffffffffffffffffffffffffffffffffff1673ffffffffffffffffffffffffffffffffffffffff163373ffffffffffffffffffffffffffffffffffffffff1614610345576040517f08c379a000000000000000000000000000000000000000000000000000000000815260040161033c90610ba4565b60405180910390fd5b60005b60048054905081101561049c5760006004828154811061036b5761036a610bc4565b5b9060005260206000200160009054906101000a900473ffffffffffffffffffffffffffffffffffffffff1690506000600560008373ffffffffffffffffffffffffffffffffffffffff1673ffffffffffffffffffffffffffffffffffffffff168152602001908152602001600020549050600081111561048757600360009054906101000a900473ffffffffffffffffffffffffffffffffffffffff1673ffffffffffffffffffffffffffffffffffffffff1663a9059cbb83836040518363ffffffff1660e01b8152600401610442929190610bf3565b6020604051808303816000875af1158015610461573d6000803e3d6000fd5b505050506040513d601f19601f820116820180604052508101906104859190610c48565b505b5050808061049490610ca4565b915050610348565b50565b60076020528060005260406000206000915054906101000a900460ff1681565b600260009054906101000a900473ffffffffffffffffffffffffffffffffffffffff1673ffffffffffffffffffffffffffffffffffffffff166323b872dd3330846040518463ffffffff1660e01b815260040161051e93929190610ced565b6020604051808303816000875af115801561053d573d6000803e3d6000fd5b505050506040513d601f19601f820116820180604052508101906105619190610c48565b5080600560003373ffffffffffffffffffffffffffffffffffffffff1673ffffffffffffffffffffffffffffffffffffffff16815260200190815260200160002060008282546105b19190610d24565b92505081905550600660003373ffffffffffffffffffffffffffffffffffffffff1673ffffffffffffffffffffffffffffffffffffffff16815260200190815260200160002060009054906101000a900460ff1661071d576004339080600181540180825580915050600190039060005260206000200160009091909190916101000a81548173ffffffffffffffffffffffffffffffffffffffff021916908373ffffffffffffffffffffffffffffffffffffffff1602179055506001600660003373ffffffffffffffffffffffffffffffffffffffff1673ffffffffffffffffffffffffffffffffffffffff16815260200190815260200160002060006101000a81548160ff0219169083151502179055506001600760003373ffffffffffffffffffffffffffffffffffffffff1673ffffffffffffffffffffffffffffffffffffffff16815260200190815260200160002060006101000a81548160ff0219169083151502179055505b50565b600160009054906101000a900473ffffffffffffffffffffffffffffffffffffffff1681565b60066020528060005260406000206000915054906101000a900460ff1681565b60056020528060005260406000206000915090505481565b600260009054906101000a900473ffffffffffffffffffffffffffffffffffffffff1681565b600481815481106107b457600080fd5b906000526020600020016000915054906101000a900473ffffffffffffffffffffffffffffffffffffffff1681565b600081519050919050565b600082825260208201905092915050565b60005b8381101561081d578082015181840152602081019050610802565b8381111561082c576000848401525b50505050565b6000601f19601f8301169050919050565b600061084e826107e3565b61085881856107ee565b93506108688185602086016107ff565b61087181610832565b840191505092915050565b600060208201905081810360008301526108968184610843565b905092915050565b600073ffffffffffffffffffffffffffffffffffffffff82169050919050565b6000819050919050565b60006108e36108de6108d98461089e565b6108be565b61089e565b9050919050565b60006108f5826108c8565b9050919050565b6000610907826108ea565b9050919050565b610917816108fc565b82525050565b6000602082019050610932600083018461090e565b92915050565b600080fd5b60006109488261089e565b9050919050565b6109588161093d565b811461096357600080fd5b50565b6000813590506109758161094f565b92915050565b60006020828403121561099157610990610938565b5b600061099f84828501610966565b91505092915050565b60008115159050919050565b6109bd816109a8565b82525050565b60006020820190506109d860008301846109b4565b92915050565b6000819050919050565b6109f1816109de565b81146109fc57600080fd5b50565b600081359050610a0e816109e8565b92915050565b600060208284031215610a2a57610a29610938565b5b6000610a38848285016109ff565b91505092915050565b610a4a8161093d565b82525050565b6000602082019050610a656000830184610a41565b92915050565b610a74816109de565b82525050565b6000602082019050610a8f6000830184610a6b565b92915050565b6000610aa0826108ea565b9050919050565b610ab081610a95565b82525050565b6000602082019050610acb6000830184610aa7565b92915050565b7f4e487b7100000000000000000000000000000000000000000000000000000000600052602260045260246000fd5b60006002820490506001821680610b1857607f821691505b60208210811415610b2c57610b2b610ad1565b5b50919050565b7f4f6e6c7920746865206f776e6572206f66207468697320636f6e74726163742060008201527f63616e20697373756520746f6b656e7300000000000000000000000000000000602082015250565b6000610b8e6030836107ee565b9150610b9982610b32565b604082019050919050565b60006020820190508181036000830152610bbd81610b81565b9050919050565b7f4e487b7100000000000000000000000000000000000000000000000000000000600052603260045260246000fd5b6000604082019050610c086000830185610a41565b610c156020830184610a6b565b9392505050565b610c25816109a8565b8114610c3057600080fd5b50565b600081519050610c4281610c1c565b92915050565b600060208284031215610c5e57610c5d610938565b5b6000610c6c84828501610c33565b91505092915050565b7f4e487b7100000000000000000000000000000000000000000000000000000000600052601160045260246000fd5b6000610caf826109de565b91507fffffffffffffffffffffffffffffffffffffffffffffffffffffffffffffffff821415610ce257610ce1610c75565b5b600182019050919050565b6000606082019050610d026000830186610a41565b610d0f6020830185610a41565b610d1c6040830184610a6b565b949350505050565b6000610d2f826109de565b9150610d3a836109de565b9250827fffffffffffffffffffffffffffffffffffffffffffffffffffffffffffffffff03821115610d6f57610d6e610c75565b5b82820190509291505056fea2646970667358221220fe23f1900898860a7c658f8b5771f15de2b4722ef7bf39c0328e61d13e7d155d64736f6c634300080a0033",
  "immutableReferences": {},
  "source": "//SPDX-License-Identifier: UNLICENSED\r\npragma solidity 0.8.10;\r\n\r\nimport \"./DaiToken.sol\";\r\nimport \"./DappToken.sol\";\r\n\r\ncontract TokenFarm {\r\n    string public name = \"DAPP Token Farm\";\r\n    address public owner;\r\n    DaiToken public daiToken;\r\n    DappToken public dappToken;\r\n\r\n    address[] public stakers;\r\n    mapping(address => uint256) public stakersBalances;\r\n    mapping(address => bool) public hasStaken;\r\n    mapping(address => bool) public isStaking;\r\n\r\n    constructor(DaiToken _daiToken, DappToken _dappToken) {\r\n        daiToken = _daiToken;\r\n        dappToken = _dappToken;\r\n        owner = msg.sender;\r\n    }\r\n\r\n    //deposit\r\n    function stakeTokens(uint256 _amount) public {\r\n        //transfer dai tokens to token farm\r\n        daiToken.transferFrom(msg.sender, address(this), _amount);\r\n\r\n        // update stakers balance\r\n        stakersBalances[msg.sender] += _amount;\r\n\r\n        //add new stakers\r\n        if (!hasStaken[msg.sender]) {\r\n            stakers.push(msg.sender);\r\n\r\n            hasStaken[msg.sender] = true;\r\n            isStaking[msg.sender] = true;\r\n        }\r\n    }\r\n\r\n    function issueTokens() public {\r\n        require(\r\n            msg.sender == owner,\r\n            \"Only the owner of this contract can issue tokens\"\r\n        );\r\n\r\n        for (uint256 i = 0; i < stakers.length; i++) {\r\n            address reciever = stakers[i];\r\n            uint balance = stakersBalances[reciever];\r\n\r\n            if(balance > 0){\r\n                dappToken.transfer(reciever, balance);\r\n            }\r\n        }\r\n    }\r\n}\r\n",
  "sourcePath": "C:\\Users\\Asus\\Documents\\GitHub\\DeFi-App\\src\\contracts\\TokenFarm.sol",
  "compiler": {
    "name": "solc",
    "version": "0.8.10+commit.fc410830.Emscripten.clang"
  },
  "schemaVersion": "3.4.3",
  "updatedAt": "2021-11-26T15:43:35.706Z",
  "devdoc": {
    "kind": "dev",
    "methods": {},
    "version": 1
  },
  "userdoc": {
    "kind": "user",
    "methods": {},
    "version": 1
  }
}