{
  "contractName": "TokenFarm",
  "abi": [
    {
      "inputs": [
        {
          "internalType": "contract DaiToken",
          "name": "_daiToken",
          "type": "address"
        },
        {
          "internalType": "contract DappToken",
          "name": "_dappToken",
          "type": "address"
        }
      ],
      "stateMutability": "nonpayable",
      "type": "constructor"
    },
    {
      "inputs": [],
      "name": "daiToken",
      "outputs": [
        {
          "internalType": "contract DaiToken",
          "name": "",
          "type": "address"
        }
      ],
      "stateMutability": "view",
      "type": "function"
    },
    {
      "inputs": [],
      "name": "dappToken",
      "outputs": [
        {
          "internalType": "contract DappToken",
          "name": "",
          "type": "address"
        }
      ],
      "stateMutability": "view",
      "type": "function"
    },
    {
      "inputs": [
        {
          "internalType": "address",
          "name": "",
          "type": "address"
        }
      ],
      "name": "hasStaken",
      "outputs": [
        {
          "internalType": "bool",
          "name": "",
          "type": "bool"
        }
      ],
      "stateMutability": "view",
      "type": "function"
    },
    {
      "inputs": [
        {
          "internalType": "address",
          "name": "",
          "type": "address"
        }
      ],
      "name": "isStaking",
      "outputs": [
        {
          "internalType": "bool",
          "name": "",
          "type": "bool"
        }
      ],
      "stateMutability": "view",
      "type": "function"
    },
    {
      "inputs": [],
      "name": "name",
      "outputs": [
        {
          "internalType": "string",
          "name": "",
          "type": "string"
        }
      ],
      "stateMutability": "view",
      "type": "function"
    },
    {
      "inputs": [],
      "name": "owner",
      "outputs": [
        {
          "internalType": "address",
          "name": "",
          "type": "address"
        }
      ],
      "stateMutability": "view",
      "type": "function"
    },
    {
      "inputs": [
        {
          "internalType": "uint256",
          "name": "",
          "type": "uint256"
        }
      ],
      "name": "stakers",
      "outputs": [
        {
          "internalType": "address",
          "name": "",
          "type": "address"
        }
      ],
      "stateMutability": "view",
      "type": "function"
    },
    {
      "inputs": [
        {
          "internalType": "address",
          "name": "",
          "type": "address"
        }
      ],
      "name": "stakersBalances",
      "outputs": [
        {
          "internalType": "uint256",
          "name": "",
          "type": "uint256"
        }
      ],
      "stateMutability": "view",
      "type": "function"
    },
    {
      "inputs": [
        {
          "internalType": "uint256",
          "name": "_amount",
          "type": "uint256"
        }
      ],
      "name": "stakeTokens",
      "outputs": [],
      "stateMutability": "nonpayable",
      "type": "function"
    },
    {
      "inputs": [],
      "name": "issueTokens",
      "outputs": [],
      "stateMutability": "nonpayable",
      "type": "function"
    }
  ],
  "bytecode": "0x60806040526040518060400160405280600f81526020017f4441505020546f6b656e204661726d0000000000000000000000000000000000815250600090805190602001906200005192919062000150565b503480156200005f57600080fd5b50604051620011de380380620011de8339818101604052810190620000859190620002c3565b81600260006101000a81548173ffffffffffffffffffffffffffffffffffffffff021916908373ffffffffffffffffffffffffffffffffffffffff16021790555080600360006101000a81548173ffffffffffffffffffffffffffffffffffffffff021916908373ffffffffffffffffffffffffffffffffffffffff16021790555033600160006101000a81548173ffffffffffffffffffffffffffffffffffffffff021916908373ffffffffffffffffffffffffffffffffffffffff16021790555050506200036f565b8280546200015e9062000339565b90600052602060002090601f016020900481019282620001825760008555620001ce565b82601f106200019d57805160ff1916838001178555620001ce565b82800160010185558215620001ce579182015b82811115620001cd578251825591602001919060010190620001b0565b5b509050620001dd9190620001e1565b5090565b5b80821115620001fc576000816000905550600101620001e2565b5090565b600080fd5b600073ffffffffffffffffffffffffffffffffffffffff82169050919050565b6000620002328262000205565b9050919050565b6000620002468262000225565b9050919050565b620002588162000239565b81146200026457600080fd5b50565b60008151905062000278816200024d565b92915050565b60006200028b8262000225565b9050919050565b6200029d816200027e565b8114620002a957600080fd5b50565b600081519050620002bd8162000292565b92915050565b60008060408385031215620002dd57620002dc62000200565b5b6000620002ed8582860162000267565b92505060206200030085828601620002ac565b9150509250929050565b7f4e487b7100000000000000000000000000000000000000000000000000000000600052602260045260246000fd5b600060028204905060018216806200035257607f821691505b602082108114156200036957620003686200030a565b5b50919050565b610e5f806200037f6000396000f3fe608060405234801561001057600080fd5b506004361061009e5760003560e01c80638da5cb5b116100665780638da5cb5b146101355780638df36cfc14610153578063b3205f2e14610183578063be22f546146101b3578063fd5e6dd1146101d15761009e565b806306fdde03146100a35780635eb186f8146100c157806360ab5852146100df5780636f49712b146100e95780637547c7a314610119575b600080fd5b6100ab610201565b6040516100b891906108bf565b60405180910390f35b6100c961028f565b6040516100d69190610960565b60405180910390f35b6100e76102b5565b005b61010360048036038101906100fe91906109be565b61049f565b6040516101109190610a06565b60405180910390f35b610133600480360381019061012e9190610a57565b6104bf565b005b61013d610763565b60405161014a9190610a93565b60405180910390f35b61016d600480360381019061016891906109be565b610789565b60405161017a9190610a06565b60405180910390f35b61019d600480360381019061019891906109be565b6107a9565b6040516101aa9190610abd565b60405180910390f35b6101bb6107c1565b6040516101c89190610af9565b60405180910390f35b6101eb60048036038101906101e69190610a57565b6107e7565b6040516101f89190610a93565b60405180910390f35b6000805461020e90610b43565b80601f016020809104026020016040519081016040528092919081815260200182805461023a90610b43565b80156102875780601f1061025c57610100808354040283529160200191610287565b820191906000526020600020905b81548152906001019060200180831161026a57829003601f168201915b505050505081565b600360009054906101000a900473ffffffffffffffffffffffffffffffffffffffff1681565b600160009054906101000a900473ffffffffffffffffffffffffffffffffffffffff1673ffffffffffffffffffffffffffffffffffffffff163373ffffffffffffffffffffffffffffffffffffffff1614610345576040517f08c379a000000000000000000000000000000000000000000000000000000000815260040161033c90610be7565b60405180910390fd5b60005b60048054905081101561049c5760006004828154811061036b5761036a610c07565b5b9060005260206000200160009054906101000a900473ffffffffffffffffffffffffffffffffffffffff1690506000600560008373ffffffffffffffffffffffffffffffffffffffff1673ffffffffffffffffffffffffffffffffffffffff168152602001908152602001600020549050600081111561048757600360009054906101000a900473ffffffffffffffffffffffffffffffffffffffff1673ffffffffffffffffffffffffffffffffffffffff1663a9059cbb83836040518363ffffffff1660e01b8152600401610442929190610c36565b6020604051808303816000875af1158015610461573d6000803e3d6000fd5b505050506040513d601f19601f820116820180604052508101906104859190610c8b565b505b5050808061049490610ce7565b915050610348565b50565b60076020528060005260406000206000915054906101000a900460ff1681565b60008111610502576040517f08c379a00000000000000000000000000000000000000000000000000000000081526004016104f990610d7c565b60405180910390fd5b600260009054906101000a900473ffffffffffffffffffffffffffffffffffffffff1673ffffffffffffffffffffffffffffffffffffffff166323b872dd3330846040518463ffffffff1660e01b815260040161056193929190610d9c565b6020604051808303816000875af1158015610580573d6000803e3d6000fd5b505050506040513d601f19601f820116820180604052508101906105a49190610c8b565b5080600560003373ffffffffffffffffffffffffffffffffffffffff1673ffffffffffffffffffffffffffffffffffffffff16815260200190815260200160002060008282546105f49190610dd3565b92505081905550600660003373ffffffffffffffffffffffffffffffffffffffff1673ffffffffffffffffffffffffffffffffffffffff16815260200190815260200160002060009054906101000a900460ff16610760576004339080600181540180825580915050600190039060005260206000200160009091909190916101000a81548173ffffffffffffffffffffffffffffffffffffffff021916908373ffffffffffffffffffffffffffffffffffffffff1602179055506001600660003373ffffffffffffffffffffffffffffffffffffffff1673ffffffffffffffffffffffffffffffffffffffff16815260200190815260200160002060006101000a81548160ff0219169083151502179055506001600760003373ffffffffffffffffffffffffffffffffffffffff1673ffffffffffffffffffffffffffffffffffffffff16815260200190815260200160002060006101000a81548160ff0219169083151502179055505b50565b600160009054906101000a900473ffffffffffffffffffffffffffffffffffffffff1681565b60066020528060005260406000206000915054906101000a900460ff1681565b60056020528060005260406000206000915090505481565b600260009054906101000a900473ffffffffffffffffffffffffffffffffffffffff1681565b600481815481106107f757600080fd5b906000526020600020016000915054906101000a900473ffffffffffffffffffffffffffffffffffffffff1681565b600081519050919050565b600082825260208201905092915050565b60005b83811015610860578082015181840152602081019050610845565b8381111561086f576000848401525b50505050565b6000601f19601f8301169050919050565b600061089182610826565b61089b8185610831565b93506108ab818560208601610842565b6108b481610875565b840191505092915050565b600060208201905081810360008301526108d98184610886565b905092915050565b600073ffffffffffffffffffffffffffffffffffffffff82169050919050565b6000819050919050565b600061092661092161091c846108e1565b610901565b6108e1565b9050919050565b60006109388261090b565b9050919050565b600061094a8261092d565b9050919050565b61095a8161093f565b82525050565b60006020820190506109756000830184610951565b92915050565b600080fd5b600061098b826108e1565b9050919050565b61099b81610980565b81146109a657600080fd5b50565b6000813590506109b881610992565b92915050565b6000602082840312156109d4576109d361097b565b5b60006109e2848285016109a9565b91505092915050565b60008115159050919050565b610a00816109eb565b82525050565b6000602082019050610a1b60008301846109f7565b92915050565b6000819050919050565b610a3481610a21565b8114610a3f57600080fd5b50565b600081359050610a5181610a2b565b92915050565b600060208284031215610a6d57610a6c61097b565b5b6000610a7b84828501610a42565b91505092915050565b610a8d81610980565b82525050565b6000602082019050610aa86000830184610a84565b92915050565b610ab781610a21565b82525050565b6000602082019050610ad26000830184610aae565b92915050565b6000610ae38261092d565b9050919050565b610af381610ad8565b82525050565b6000602082019050610b0e6000830184610aea565b92915050565b7f4e487b7100000000000000000000000000000000000000000000000000000000600052602260045260246000fd5b60006002820490506001821680610b5b57607f821691505b60208210811415610b6f57610b6e610b14565b5b50919050565b7f4f6e6c7920746865206f776e6572206f66207468697320636f6e74726163742060008201527f63616e20697373756520746f6b656e7300000000000000000000000000000000602082015250565b6000610bd1603083610831565b9150610bdc82610b75565b604082019050919050565b60006020820190508181036000830152610c0081610bc4565b9050919050565b7f4e487b7100000000000000000000000000000000000000000000000000000000600052603260045260246000fd5b6000604082019050610c4b6000830185610a84565b610c586020830184610aae565b9392505050565b610c68816109eb565b8114610c7357600080fd5b50565b600081519050610c8581610c5f565b92915050565b600060208284031215610ca157610ca061097b565b5b6000610caf84828501610c76565b91505092915050565b7f4e487b7100000000000000000000000000000000000000000000000000000000600052601160045260246000fd5b6000610cf282610a21565b91507fffffffffffffffffffffffffffffffffffffffffffffffffffffffffffffffff821415610d2557610d24610cb8565b5b600182019050919050565b7f416d6f756e74206d7573742062652067726561746572207468616e2030000000600082015250565b6000610d66601d83610831565b9150610d7182610d30565b602082019050919050565b60006020820190508181036000830152610d9581610d59565b9050919050565b6000606082019050610db16000830186610a84565b610dbe6020830185610a84565b610dcb6040830184610aae565b949350505050565b6000610dde82610a21565b9150610de983610a21565b9250827fffffffffffffffffffffffffffffffffffffffffffffffffffffffffffffffff03821115610e1e57610e1d610cb8565b5b82820190509291505056fea2646970667358221220e7aa159d2452617328cc2ba6541b8ac73d0e65261ce43417c8f86aed64bc395e64736f6c634300080a0033",
  "immutableReferences": {},
  "source": "//SPDX-License-Identifier: UNLICENSED\r\npragma solidity 0.8.10;\r\n\r\nimport \"./DaiToken.sol\";\r\nimport \"./DappToken.sol\";\r\n\r\ncontract TokenFarm {\r\n    string public name = \"DAPP Token Farm\";\r\n    address public owner;\r\n    DaiToken public daiToken;\r\n    DappToken public dappToken;\r\n\r\n    address[] public stakers;\r\n    mapping(address => uint256) public stakersBalances;\r\n    mapping(address => bool) public hasStaken;\r\n    mapping(address => bool) public isStaking;\r\n\r\n    constructor(DaiToken _daiToken, DappToken _dappToken) {\r\n        daiToken = _daiToken;\r\n        dappToken = _dappToken;\r\n        owner = msg.sender;\r\n    }\r\n\r\n    //deposit\r\n    function stakeTokens(uint256 _amount) public {\r\n        require(_amount > 0, \"Amount must be greater than 0\");\r\n\r\n        //transfer dai tokens to token farm\r\n        daiToken.transferFrom(msg.sender, address(this), _amount);\r\n\r\n        // update stakers balance\r\n        stakersBalances[msg.sender] += _amount;\r\n\r\n        //add new stakers\r\n        if (!hasStaken[msg.sender]) {\r\n            stakers.push(msg.sender);\r\n\r\n            hasStaken[msg.sender] = true;\r\n            isStaking[msg.sender] = true;\r\n        }\r\n    }\r\n\r\n    function issueTokens() public {\r\n        require(\r\n            msg.sender == owner,\r\n            \"Only the owner of this contract can issue tokens\"\r\n        );\r\n\r\n        for (uint256 i = 0; i < stakers.length; i++) {\r\n            address reciever = stakers[i];\r\n            uint256 balance = stakersBalances[reciever];\r\n\r\n            if (balance > 0) {\r\n                dappToken.transfer(reciever, balance);\r\n            }\r\n        }\r\n    }\r\n}\r\n",
  "sourcePath": "C:\\Users\\Asus\\Documents\\GitHub\\DeFi-App\\src\\contracts\\TokenFarm.sol",
  "compiler": {
    "name": "solc",
    "version": "0.8.10+commit.fc410830.Emscripten.clang"
  },
  "schemaVersion": "3.4.3",
  "updatedAt": "2021-11-26T16:10:58.270Z",
  "devdoc": {
    "kind": "dev",
    "methods": {},
    "version": 1
  },
  "userdoc": {
    "kind": "user",
    "methods": {},
    "version": 1
  }
}